:020000040000fa
:080000000001040000000000f3
:020000040000fa
:040008000c020000e6
:020000040000fa
:04000c004e020000a0
:020000040000fa
:040010008e0200005c
:020000040000fa
:040014002c020000ba
:020000040000fa
:040018006e02000074
:020000040000fa
:04001c008804000054
:020000040000fa
:040020008804000050
:020000040000fa
:04002400880400004c
:020000040000fa
:040028008804000048
:020000040000fa
:04002c008804000044
:020000040000fa
:040030008804000040
:020000040000fa
:04003400ee020000d8
:020000040000fa
:040038008804000038
:020000040000fa
:04003c008804000034
:020000040000fa
:040040008804000030
:020000040000fa
:04004400880400002c
:020000040000fa
:040048008804000028
:020000040000fa
:04004c008804000024
:020000040000fa
:040050008804000020
:020000040000fa
:04005400880400001c
:020000040000fa
:040058008804000018
:020000040000fa
:04005c00ae020000f0
:020000040000fa
:040060008804000010
:020000040000fa
:04006400880400000c
:020000040000fa
:04006800240300006d
:020000040000fa
:04006c008804000004
:020000040000fa
:040070008804000000
:020000040000fa
:0400740088040000fc
:020000040000fa
:0400780088040000f8
:020000040000fa
:04007c0088040000f4
:020000040000fa
:0400800088040000f0
:020000040000fa
:0400840088040000ec
:020000040000fa
:0400880088040000e8
:020000040000fa
:04008c0088040000e4
:020000040000fa
:0400900088040000e0
:020000040000fa
:0400940088040000dc
:020000040000fa
:0400980088040000d8
:020000040000fa
:04009c0088040000d4
:020000040000fa
:0400a00088040000d0
:020000040000fa
:0400a40088040000cc
:020000040000fa
:0400a80088040000c8
:020000040000fa
:0400ac0088040000c4
:020000040000fa
:0400b00088040000c0
:020000040000fa
:0400b40088040000bc
:020000040000fa
:0400b80088040000b8
:020000040000fa
:0400bc0088040000b4
:020000040000fa
:0400c00088040000b0
:020000040000fa
:0400c40088040000ac
:020000040000fa
:0400c80088040000a8
:020000040000fa
:0400cc0088040000a4
:020000040000fa
:0400d00088040000a0
:020000040000fa
:0400d400880400009c
:020000040000fa
:0400d8008804000098
:020000040000fa
:0400dc008804000094
:020000040000fa
:0400e0008804000090
:020000040000fa
:0400e400880400008c
:020000040000fa
:0400e8008804000088
:020000040000fa
:0400ec008804000084
:020000040000fa
:0400f0008804000080
:020000040000fa
:0400f400880400007c
:020000040000fa
:0400f8008804000078
:020000040000fa
:0400fc008804000074
:020000040000fa
:04010000880400006f
:020000040000fa
:04010400880400006b
:020000040000fa
:040108008804000067
:020000040000fa
:04010c008804000063
:020000040000fa
:04011000880400005f
:020000040000fa
:04011400880400005b
:020000040000fa
:040118008804000057
:020000040000fa
:04011c008804000053
:020000040000fa
:04012000880400004f
:020000040000fa
:04012400880400004b
:020000040000fa
:040128008804000047
:020000040000fa
:04012c008804000043
:020000040000fa
:04013000880400003f
:020000040000fa
:04013400880400003b
:020000040000fa
:040138008804000037
:020000040000fa
:04013c008804000033
:020000040000fa
:04014000880400002f
:020000040000fa
:04014400880400002b
:020000040000fa
:040148008804000027
:020000040000fa
:04014c008804000023
:020000040000fa
:04015000880400001f
:020000040000fa
:04015400880400001b
:020000040000fa
:040158008804000017
:020000040000fa
:04015c008804000013
:020000040000fa
:04016000880400000f
:020000040000fa
:04016400880400000b
:020000040000fa
:040168008804000007
:020000040000fa
:04016c008804000003
:020000040000fa
:0401700088040000ff
:020000040000fa
:0401740088040000fb
:020000040000fa
:0401780088040000f7
:020000040000fa
:04017c0088040000f3
:020000040000fa
:0401800088040000ef
:020000040000fa
:0401840088040000eb
:020000040000fa
:0401880088040000e7
:020000040000fa
:04018c0088040000e3
:020000040000fa
:0401900088040000df
:020000040000fa
:0401940088040000db
:020000040000fa
:0401980088040000d7
:020000040000fa
:04019c0088040000d3
:020000040000fa
:0401a00088040000cf
:020000040000fa
:0401a40088040000cb
:020000040000fa
:0401a80088040000c7
:020000040000fa
:0401ac0088040000c3
:020000040000fa
:0401b00088040000bf
:020000040000fa
:0401b40088040000bb
:020000040000fa
:0401b80088040000b7
:020000040000fa
:0401bc0088040000b3
:020000040000fa
:0401c00088040000af
:020000040000fa
:0401c40088040000ab
:020000040000fa
:0401c80088040000a7
:020000040000fa
:0401cc0088040000a3
:020000040000fa
:0401d000880400009f
:020000040000fa
:0401d400880400009b
:020000040000fa
:0401d8008804000097
:020000040000fa
:0401dc008804000093
:020000040000fa
:0401e000880400008f
:020000040000fa
:0401e400880400008b
:020000040000fa
:0401e8008804000087
:020000040000fa
:0401ec008804000083
:020000040000fa
:0401f000880400007f
:020000040000fa
:0401f400880400007b
:020000040000fa
:0401f8008804000077
:020000040000fa
:0401fc008804000073
:020000040000fa
:10020000ef8f20000e7f24000e0188000000000008
:10021000000020000000e000020032000001200089
:100220002002880014000700bb0107000000e00066
:1002300003003a0040e620000100200002003700e1
:100240000000200001002000810f7000010032003a
:1002500014000700000020000000e000020032004f
:100260000000020000000000681002000000000012
:100270000040da000000fe004440a900c011200048
:100280000000e00003003200002020009001880000
:100290004440a800000006008a1f78008b1f7800e9
:1002a00000000600a1028800800478000000eb0036
:1002b0001f003700e284440054a0b4009905ba003e
:1002c000e284440054a0b4009906ba00e2844400d9
:1002d00054a0b4000006eb00476fde00fd07b2003b
:1002e000ae018800636ce10003003a00eaff0700fa
:1002f0000000eb000e003700606ce10008003a00df
:10030000004deb000a05e800020039003420ec0043
:100310000af0a0008b05e900f9ff3e000400370059
:100320006168e100010032000086eb000b0007006d
:1003300019c7ba001905ba000e04e00003003a001c
:100340000a00e000dbff3a0000000600fe07b200f2
:10035000ae0288008a047800f5ff37000cd0a300b5
:10036000e20f4d001c00390089027800354dba00bb
:100370000a05e800020039003420ec000af0a00071
:100380008b05e9000f003200254dba000a05e80090
:10039000020039003420ec000af0a0008b05e900cf
:1003a000080032000c00e0000600320015cdba0053
:1003b0000a05e800020039003420ec000af0a00031
:1003c0008b05e9008984e80054a0b4000b00e0002c
:1003d000e2ff3a00000006009902ba00055d7800cd
:1003e0008b05e900f7ff3200c82ade00055d7800c2
:1003f0008b05e900f3ff32000c00e000f1ff320052
:1004000019ddba00eeff3700300f040000000000d5
:100410005e0d0400000000003600f800809fbe0062
:10042000829fbe00849fbe00869fbe000000fa002f
:100430008020a9000000eb00550707000080fa00ab
:100440004f03be004f02be004f01be004f00be0072
:100450003600f900004006003600f800809fbe001c
:10046000829fbe00849fbe00869fbe000000fa00ef
:100470004c0707008040a900100020004407070037
:100480000080fa004f03be004f02be004f01be00c5
:100490004f00be003600f900004006003600f800ac
:1004a000809fbe00829fbe00849fbe00869fbe00cc
:1004b0000000fa008060a900200020003407070037
:1004c0000080fa004f03be004f02be004f01be0085
:1004d0004f00be003600f900004006003600f8006c
:1004e000809fbe00829fbe00849fbe00869fbe008c
:1004f0000000fa008080a9003000200024070700d7
:100500000080fa004f03be004f02be004f01be0044
:100510004f00be003600f900004006003600f8002b
:10052000809fbe00829fbe00849fbe00869fbe004b
:100530000000fa008600a9007000200014070700e0
:100540000080fa004f03be004f02be004f01be0004
:100550004f00be003600f900004006003600f800eb
:10056000809fbe00829fbe00849fbe00869fbe000b
:100570003200f8003400f80010002000a0018800cc
:1005800000202000900188000000fa004104800053
:1005900000002200008060000000e0000600320041
:1005a000204180000000e000020032002041800075
:1005b0000000010089a0a9000080fa003400f900c1
:1005c0003200f9004f03be004f02be004f01be00d3
:1005d0004f00be003600f900004006003600f8006b
:1005e000809fbe00829fbe00849fbe00869fbe008b
:1005f0000000fa00304180000000e00002003200fc
:100600003041800000000100d08f200010407800b1
:100610008040e800d08f200001487800c08f200083
:1006200011c0b300014878008860a9000080fa007a
:100630004f03be004f02be004f01be004f00be0080
:100640003600f900004006003600f800809fbe002a
:10065000829fbe00849fbe00869fbe000200fa00fb
:1006600070408000e20f500088003200e20f50001e
:1006700003003900e30f5000770032009500370087
:10068000d124800000402000008060000000e000d5
:1006900005003a00f1248000000220000080600084
:1006a0000000e0000a003200d12480000008200091
:1006b000008060000000e00024003200f12480008f
:1006c00000202000008060000000e0001f003200d9
:1006d000f0248000640060000000e0000c003a009c
:1006e00010002000a0030700804080000000e00010
:1006f0000400320080408000a12480008140780006
:100700000148780010002000704088003600370053
:10071000a0248000004f78000000eb009203070047
:10072000904080000000e000050032009040800012
:10073000104078000080fb00b02488009b84a80053
:10074000200020007040880027003700d12480005e
:1007500000402000008060000000e0002200320025
:10076000f124800000022000008060000000e00012
:100770001d003a00f0248000640060000000e000ea
:1007800004003a001468ef00300020007040880038
:100790001300370014c8bf000004e0000d00320051
:1007a0000000eb0070030700904080000000e000b4
:1007b0000500320090408000104078000080fb006f
:1007c000b02488009b84a80020002000704088008e
:1007d000030037001468ef003000200070408800ec
:1007e000a0248000004f780070408000e10f50008e
:1007f00039003a00f12480000002200000806000ef
:100800000000e00036003200f124800000042000e7
:10081000008060000000e0000b003a008040800093
:100820000000e0000400320080408000a12480002d
:100830008140780001487800200020004a0307002a
:1008400028e8b70029003700a0248000004f780076
:100850009ec4a90025003700300020004203070095
:1008600028e8b70010c0b30014e8b70028c8bf00dc
:100870000004e00002003200a0248000004f780055
:10088000100020007040880018003700f12480001c
:1008900000002800008060000000e0000b003a002b
:1008a0000000eb0030030700904080000000e000f3
:1008b0000d00320090408000104078000080fb0066
:1008c000b02488009b84a800080037000e28ef00a1
:1008d00006003700ffff370000000000030037006c
:1008e0000000000001003700000000009b84a80009
:1008f0008a00a9000080fa004f03be004f02be002c
:100900004f01be004f00be003600f9000040060057
:100910000040da000000fe00000005006022b80080
:10092000060220000000d0008180d2000482d200a4
:100930008582d2000000a0000202520083825a0089
:10094000030031000202420083824a000000a1003d
:0c0950000603e900f3ff3a000000060077
:020000040000fa
:10095c001500000011000000110000001200000042
:10096c001300000011000000130000001300000031
:10097c001200000012000000120000004d030000e5
:10098c0000000000f02500000a0000009a0600009c
:10099c00000000001819000010000000f0250000f5
:1009ac000a0000004d030000000000004d03000091
:1009bc00000000009a060000000000004d0300003b
:1009cc0000000000719a0000030000009a0600006d
:1009dc0000000000400000000000000000fa0000d1
:1009ec0000000000400000000000000000fa0000c1
:1009fc000000000000fa00000000000040000000b1
:100a0c00000000004000000000000000400000005a
:100a1c00000000004000000000000000403e00000c
:100a2c000000000040000000000000000300000077
:100a3c000400000005000000060000000700000094
:100a4c00080000000a00000002000000090000007d
:100a5c00000000000100000012520000414700009d
:100a6c00455f00005359000053540000454d0000f1
:100a7c00535f00003836000033570000330c000081
:100a8c003031000039350000305f0000504100006b
:100a9c00524b000045520000055400004554000024
:100aac0052410000033100002e3000000000000015
:100abc0040000000000000000001000000000000e9
:100acc008000000000000000000200000000000098
:100adc0000040000000000000008000000000000fe
:100aec0000200000000000002000000000000000ba
:100afc0000100000000000000100000000000000d9
:100b0c0010000000000000000000000000000000c9
:100b1c0001000000000000000300000000000000c5
:100b2c0007000000000000000f00000000000000a3
:100b3c001f000000000000003f000000000000004b
:100b4c003f000000000000007f00000000000000db
:100b5c00ff01000000000000ff0300000000000087
:100b6c00ff07000000000000ff0b00000000000069
:100b7c00ff1b000000000000ff0b00000000000045
:080b8c00ff070000000000005b
:020000040000fa
:100b94001600fa00a0892000f70407000000eb000b
:100ba400000f7800110037001e007800800040001c
:100bb400008b200000804000900078001e00780028
:100bc40000014000a08920000000410010007800ce
:100bd400808040001e00780000014000008b20004f
:100be40000004100010878001e0fe8001e00780094
:100bf400ea0f5000ecff34002cc8bf000040e800ae
:100c04002ce8b7002cc8bf00e34f500002003e00a0
:100c1400ce0407007c0137002c68ef000000eb00d5
:100c2400000f7800120037001e007800800040009a
:100c3400008b20000080400010007800c200de001d
:100c44001e00780000014000a0892000000041003f
:100c5400010878001e00780080004000008b20000e
:100c6400008040008000eb00010878001e0fe800bf
:100c74001e007800ea0f5000ebff3400a08920002a
:100c8400dd0107006000b8003007980041079800b4
:100c94000000eb00000f7800240037001e007800ed
:100ca40080004000a089200000804000900078006f
:100cb4001e00780000014000e08220000000410096
:100cc40010007800808f5000170039001e00780053
:100cd40080004000a089200000804000900078003f
:100ce4001e00780000014000408420000000410004
:100cf40010007800808f50000b003e001e0078002a
:100d0400c200dd00e0552800008040001000be0055
:100d14003e019000ce0190000000710081807100be
:100d240030079800410798001e0fe8001e00780065
:100d3400ea0f5000d9ff34003e019000ce0190002c
:100d4400e0002c00f1ff2f0000017100818171008f
:100d5400f040800001418000020278000301780025
:100d64008001780001007800030262000000610045
:100d74008000eb00c000dd00000020000001be0088
:100d84006120b80000017100818171007207980030
:100d9400030f9800603480004700de00614060006b
:100da4000080fb008000eb001007980021079800ea
:100db4001e009000ae009000c000dd000000200086
:100dc4007e0190008e099000000071008180710006
:100dd40070079800010f9800203380004a00de005d
:100de400614060000080fb008000eb001007980069
:100df400210798001e009000ae009000c200dd00a4
:100e0400000020007e0190008e0990000000710017
:100e14008180710070079800010f980020338000d2
:100e24004700de00614060000080fb008000eb00b2
:100e340010079800210798001e009000ae00900053
:100e4400c100dd00000020007e0190008e099000aa
:100e5400000071008180710070079800010f9800f4
:100e640010002000010020001007980021079800be
:100e74006000b80050079800610798000000eb007c
:100e8400000f78002c0037001e007800c200dd003f
:100e9400a0582800008040001001be00120f9800e6
:100ea400230f98007e0190008e0990001e08900088
:100eb400ae089000020278000301780080017800f7
:100ec4000100780003026200000061008000eb0072
:100ed400c000dd00000020000001be006120b80059
:100ee40000017100818171001e089000ae0890001d
:100ef400800f5100818f590008003a005e01900074
:100f0400ee0190001e009000ae0090000000710001
:100f14008180710050079800610798001e009000be
:100f2400ae00900000004000818048001007980047
:100f3400210798001e0fe8001e007800ef0f5000f4
:100f4400d1ff340010002000010020001007980099
:100f5400210798000000eb00000f78009d00370087
:100f6400f0408000014180000081ea008181ea00b4
:100f74005e009000ee009000020278000301780009
:100f84008001780001007800030262000000610023
:100f94008000eb00c000dd00000020000001be0066
:100fa4006120b80000017100818171001e00900071
:100fb400ae009000020278000301780080017800fe
:100fc4000100780003026200000061008000eb0071
:100fd400c000dd00000020000001be006120b80058
:100fe4000001710081817100e00f5100e08f590010
:100ff4002f0032001e00780080004000a0872000ef
:1010040000804000100078000000e0000b003a006f
:101014001e00780080004000a08520000080400071
:10102400900078001e00780000014000a087200096
:1010340000004100010878005f0037001e007800be
:1010440080004000a087200000804000100078004d
:101054008000e9001e00780000014000a087200005
:1010640000004100010878001e0078008000400064
:10107400a087200000804000100078000000e000fd
:101084004d003a00f2408000034180001e009000b1
:10109400ae0090000000710081807100f040880073
:1010a400014188001e007800590007004200370003
:1010b4005e009000ee0090000081ea008181ea0069
:1010c400f0408000014180000202780003017800b2
:1010d40080017800010078000302620000006100d2
:1010e4008000eb00c000dd00000020000001be0015
:1010f4006120b80000017100818171001e00900020
:10110400ae009000020278000301780080017800ac
:101114000100780003026200000061008000eb001f
:10112400c000dd00000020000001be006120b80006
:101134000001710081817100e00f5100e08f5900be
:101144001d0032001e00780080004000a0872000af
:10115400008040008000eb00010878001e00900031
:10116400ae0090000081ea008181ea00f040800036
:1011740001418000020278000301780080017800b8
:101184000100780003026200000061008000eb00af
:10119400c000dd00000020000001be006120b80096
:1011a4000001710081817100f240880003418800d0
:1011b4001e007800530007001e009000ae0090004f
:1011c4000000400081804800100798002107980023
:1011d4001e0fe8001e007800ef0f500060ff34007f
:1011e400f240800003418000f0ff2f000100200046
:1011f400800f5100818f590002003a008ec6a8006a
:10120400010037008ec6a9000080fa000000060025
:101214000200fa00000f78001e0078006101b90096
:101224000080eb008080eb000200400083804800d7
:10123400e200200003002000820f5000838f58003a
:101244002e003e00006001000e0037000f00370042
:101254001000370011003700120037001300370068
:101264001400370015003700160037001700370048
:1012740018003700190037001a0037001b00370028
:101284001c0037007b66a8001c0037007b86a80082
:101294001a0037007ba6a800180037006646a8008d
:1012a400160037006666a800140037006706a80019
:1012b400120037006686a800100037007a86a8005e
:1012c4000e0037006726a8000c0037008e66a800c1
:1012d4000a0037008e86a800080037008ea6a800f2
:1012e400060037008f06a800040037007b46a800dc
:1012f400020037008f26a800000000000080fa00da
:10130400000006000200fa00000f78001e007800ba
:101314006101b9000080eb008080eb000200400016
:1013240083804800e200200003002000820f500068
:10133400838f58002e003e00006001000e0037002d
:101344000f0037001000370011003700120037007b
:10135400130037001400370015003700160037005b
:101364001700370018003700190037001a0037003b
:101374001b0037001c0037007b66a9001c003700e7
:101384007b86a9001a0037007ba6a9001800370045
:101394006646a900160037006666a90014003700e7
:1013a4006706a900120037006686a90010003700fe
:1013b4007a86a9000e0037006726a9000c003700c2
:1013c4008e66a9000a0037008e86a900080037003f
:1013d4008ea6a900060037008f06a9000400370076
:1013e4007b46a900020037008f26a90000000000f8
:1013f4000080fa00000006000a00fa004007980086
:101404000000eb00000f78003f0037001e0078005a
:1014140000004000ce0090000080400010007800e2
:101424008000eb0010079800210798001e00780048
:10143400c200dd00404c2800008040001000be00c7
:101444002e0190000091b900020178009e019000e5
:10145400019ab90084017800030141009e019000c3
:101464000018b800010141008200780010079800bc
:101474002107980010079800210798001e007800a3
:10148400c200dd00004f2800008040001000be00b4
:101494000001be001e009000ae0090001efd07007b
:1014a40010079800210798001e019000ae019000db
:1014b400f0ff2f0001002000800f5100818f5900a0
:1014c40004003600f0ff2f000100200010079800f0
:1014d400210798001e00780080004000c0512800b9
:1014e4000080400090007800310798009e00900032
:1014f4003e00900000014000608e2000000041008a
:10150400010878001e0fe8001e007800ea0f500062
:10151400beff34000080fa00000006000600fa0056
:10152400100798002107980000c0eb00004f7800d6
:101534001e009000104078008080fb002e00900078
:10154400808f5000040039009e0090002e0090000f
:1015540000804000104f78001e4078000080fa00a0
:10156400000006000400fa00100798001e00900016
:10157400e10f5000b8003200e10f500003003900c1
:10158400e20f5000ba0032001c01370000c0eb002b
:1015940017e8b70040408000a1022000810f5000ee
:1015a40057003200a1022000810f500010003e00bd
:1015b400e20f500031003200e20f500005003e00ff
:1015c4000000e00021003200e10f5000250032004d
:1015d4009b00370001022000810f50002d003200d3
:1015e40091022000810f5000360032009400370031
:1015f400b1092000810f500072003200b1092000af
:10160400810f50000a003e0091092000810f500014
:101614006000320091092000810f500063003e00f9
:10162400b1082000810f50004400320084003700cc
:10163400c1092000810f500068003200e109200038
:10164400810f50007e003e006a0037005040800049
:101654000000e0006d003a0000c8bf0017e8b700c2
:1016640077003700504080000000e00069003a0035
:1016740001c8bf0017e8b700710037005040800070
:101684000000e00065003a0002c8bf0017e8b70098
:101694006b003700504080000000e00061003a0019
:1016a40000c8bf000080fb0080004000e04a280022
:1016b40000804000100078000040780017e8b70070
:1016c4005f003700504080000000e00004003a0052
:1016d400204080000040780017e8b7005800370029
:1016e40050408000e10f500050003a00204080003c
:1016f4004800de000040780017e8b70050003700cb
:10170400504080000000e00004003a0030408000b7
:101714000040780017e8b7004900370050408000c7
:10172400e10f500043003a00304080004800de00e2
:101734000040780017e8b7004100370050408000af
:101744000000e0000b003a0000c8bf000080fb006e
:1017540080004000608e200000804000100078006f
:1017640060408800604080000040780017e8b700bf
:101774003300370050408000e10f50002f003a0042
:10178400604080004800de000040780017e8b700a1
:101794002b00370050408000800078002053280040
:1017a4005eff070017e8b7002500370050408000af
:1017b400800078002055280058ff070017e8b7007c
:1017c4001f003700504080008000780080552800ba
:1017d40052ff070017e8b700190037005040800097
:1017e40080007800505428004cff070017e8b70029
:1017f400130037005040800080007800c055280056
:1018040046ff070017e8b7000d003700000000008e
:101814000b00370000000000090037000000000042
:10182400070037000000000005003700000000003a
:101834000300370000000000010037000000000032
:1018440070812000de000700504080000000e800a6
:1018540050408800690037000a28ef0010c0b30028
:1018640018e8b70060812000db0007006300370040
:1018740018c8bf000004e0000600320016c8bf000c
:101884000080fb00404088000a28ef001868ef0041
:101894005a0037006181200091407800014f7800a0
:1018a40040408000e30f500045003200e30f500039
:1018b40005003e00e10f500011003200e10f50001e
:1018c40016003e000700370091022000810f5000ef
:1018d40019003200a1022000810f500027003200bd
:1018e40042003700504080000000e00036003a001b
:1018f4009e40780002802000014978003b003700b8
:10190400504080000000e00031003a009e40780022
:1019140012802000014978003400370050408000d4
:101924000000e0002c003a009e4078002280200055
:10193400014978002d003700504080000000e0008d
:1019440003003a001e80fb00604088002700370037
:1019540050408000e10f500021003a001e80fb003f
:10196400c800dd0060408000010070006040880015
:1019740060408000204088001c00370050408000f8
:101984000000e00003003a001e80fb006040880075
:101994001600370050408000e10f500012003a005a
:1019a4001e80fb00c800dd00604080000100700064
:1019b4006040880060408000304088000b003700a1
:1019c4000000000009003700000000000700370095
:1019d400000000000500370000000000030037008d
:1019e40000000000010037000000000050408000ab
:1019f4000000e800504088000000000010c0b30060
:101a04000080fa00000006000000fa009021ef00b8
:101a1400f0702200900c880000002800a00c8800c0
:101a2400304180000000e00002003a00e0d52000d0
:101a3400250007008860a9009860a800c08f2000d6
:101a44008040eb00014878000080fa0000000600a6
:101a54000200fa00000f78009e007800910c8800c4
:101a6400c08f20008040eb00014878000080fa001d
:101a7400000006000000fa00900c80000080fa00cc
:101a8400000006000200fa00000f78009e007800b3
:101a9400810c8800c08f20008040eb000148780052
:101aa4000080fa00000006000000fa00800c8000ac
:101ab4000080fa00000006000000fa00c8010700d8
:101ac4000080fa00000006000200fa00000f78000f
:101ad4009860a9009e007800314188009860a800b1
:101ae4000080fa00000006000000fa00c08f200009
:101af4008040eb00014878009860a80095e1a800b8
:101b04000080fa00000006000000fa0095e1a90038
:101b14009860a9000080fa00000006000200fa00a4
:101b2400c08f2000104f78001e4078000004e000b1
:101b340003003200c08f20008040eb000148780091
:101b44001e4078000080fa00000006000000fa0041
:101b5400d08f2000104078000080fb000080fa0045
:101b6400000006000000fa00d08f20008040eb0047
:101b7400014878000080fa00000006000000fa0026
:101b840000242800d02488009e24ef00e0042000d4
:101b9400250007000000eb001d0007000e28ef00e1
:101ba4000000eb00060007000000eb000a0007003d
:101bb4008a00a9009a00a8000080fa00000006002c
:101bc4000200fa00000f78009e007800914088001f
:101bd4000080fa00000006000200fa00000f7800fe
:101be4009e007800814088000080fa000000060012
:101bf4000000fa00904080000080fa000000060017
:101c04000000fa00804080000080fa000000060016
:101c14000200fa00000f78009e0078001125880069
:101c24000080fa00000006000200fa00000f7800ad
:101c3400f00720009e007800808f500002003600dc
:101c44009b44a800010037009b44a9000e28ef0024
:101c54009e007800012588000080fa00000006003c
:101c64000000fa00904080000000e000060032000e
:101c740090408000104078000080fb00b024880071
:101c84009b84a80001003700000000000080fa00d7
:101c9400000006000000fa00804080000000e00020
:101ca4000500320080408000a1248000814078003b
:101cb4000148780001003700000000000080fa00ad
:041cc4000000060016
:020000040000fa
:101cc800c608000020000000800000002208000074
:101cd8000200000082000000ffff0000240800004e
:101ce8000200000080000000fc0800000200000064
:101cf80080000000260800000200000080000000ac
:101d08000e080000080000008000000028080000fd
:101d1800020000008200000001000000e608000048
:101d28001600000080000000000800000e000000ff
:101d38008000000016080000040000008200000077
:101d4800aaaa0100000000002a0800000200000002
:101d5800800000001a080000040000008000000055
:101d68002e0800004c000000820000004a086f00a6
:101d78000987050036096f0009830b004a089b0094
:101d880004830b006f099b00042909006d0a1c00dd
:101d9800062e0a006d0ab9000c2909001705b900ba
:101da8000c6d0a001705000000150000150015004d
:101db80000280000010001000002000001002800c6
:101dc800000a00000a000a00000a000015001500b9
:101dd800000000007a0800004c00000080000000ad
:101de8002c08000002000000800000001e0800000f
:101df8000400000082000000010000000000000054
:041e080000000000d6
:020000040000fa
:101e0c000000fa0040402800303a88004827ef00d4
:101e1c0010002000503a88004c27ef004e27ef00ae
:101e2c005027ef005227ef005427ef005827ef0000
:101e3c005a27ef005c27ef005e27ef00f422ef003b
:101e4c0000f320000700070099a0a8000080fa000a
:101e5c00000006000000fa003f0007000080fa00b6
:101e6c00000006000200fa00000f78001e00780047
:101e7c00204188000080fa00000006000000fa00f3
:101e8c004627a8000080fa00000006000000fa00b7
:101e9c004627a9000080fa00000006000800fa009e
:101eac0030079800403a80004200de007f4060001e
:101ebc000080fb002007980020712000100798007c
:101ecc000000eb00000f78000b0037001e007800bc
:101edc0000004000be009000008040009e0090007a
:101eec0091007800010878001e0090000080e80046
:101efc00100798001e0fe8009e0078002e0090003e
:101f0c00808f5000f1ff36001e0078000080fa0030
:101f1c00000006000000fa00f0e72100803a88007b
:101f2c0000472000303a880010f02000503a88001a
:101f3c0080422000403a880047e7a8000080fa0061
:101f4c00000006000000fa0089a0a9004647a8007e
:101f5c000080fa00000006000000fa004647a900c5
:101f6c0010002000e04088000080fa00000006000d
:101f7c000600fa002007980020712000000f78005e
:101f8c000000eb00100798000b0037001e007800d3
:101f9c00900078002e009000010878002e00900030
:101fac000080e800200798001e8fe8001e009000bb
:101fbc000000e800100798001e009000ea0f500087
:101fcc00f2ff34000080fa00000006000000fa0066
:101fdc0000002300100888000621ef006821ef00a4
:101fec006a21ef000821ef000070200050088800e3
:101ffc000c21ef000e21ef007821ef007a21ef0089
:10200c007c21ef007e21ef008021ef008221ef0088
:10201c008421ef008621ef000001eb0080072000f7
:10202c00a109200013102000804978008149780014
:10203c00824978000001eb0060042000710520004b
:10204c00031020008049780081497800824978008b
:10205c000080fa00000006000000fa006626ef007f
:10206c007a26ef008e26ef003048200010338800cf
:10207c00f0362c00b03388007008200050348800f3
:10208c007426ef008826ef009c26ef007226ef00e6
:10209c008626ef009a26ef006826ef007c26ef00dc
:1020ac009026ef003000200050338800f0002c0008
:1020bc00f033880070002000903488000080fa0013
:1020cc00000006000200fa003a00070091ff07002a
:1020dc0083fe07000000eb00000f780007003700bc
:1020ec001e00780080004000008b20000080400023
:1020fc008000eb00010878001e0fe8001e0078003d
:10210c00ea0f5000f6ff3400010037000000000019
:10211c00e04080000000e000fcff32001c28ef00d3
:10212c0099fa0700faff37000000fa0081058000d9
:10213c00f0f82f00008060000040a00080058800af
:10214c008105800080ff2f00008060000000a0004f
:10215c008005880071058000f0f82f000080600079
:10216c000040a0007005880041058000f0ff2800a9
:10217c000080600000c0a000400588000080fa00cc
:10218c00000006000200fa00000f78009e007800a4
:10219c0011418800ffff37000000fa00608c20001e
:1021ac0080077800e08d2000000188000080fa0094
:1021bc00000006000000fa00a7ff070083ff0700dd
:1021cc00d9ff07000eff07006afe07000cfe070090
:1021dc000080fa00000006000000fa0059ff07001a
:0821ec000080fa00000006006b
:020000040000fa
:020000040005f5
:045e0000ffffff00a1
:020000040000fa
:020000040005f5
:045e2000ffffff0081
:020000040000fa
:020000040005f5
:045e300078ffff00f8
:020000040000fa
:020000040005f5
:045e3800a3ffff00c5
:020000040000fa
:020000040005f5
:045e40009fffff00c1
:020000040000fa
:020000040005f5
:045e4800ffffff0059
:020000040000fa
:020000040005f5
:045e5000ddffff0073
:020000040000fa
:020000040005f5
:045e5800ffffff0049
:00000001FF
