:020000040000fa
:080000000001040000000000f3
:020000040000fa
:0400080010020000e2
:020000040000fa
:04000c00520200009c
:020000040000fa
:040010009202000058
:020000040000fa
:0400140030020000b6
:020000040000fa
:040018007202000070
:020000040000fa
:04001c00b20200002c
:020000040000fa
:04002000b202000028
:020000040000fa
:04002400b202000024
:020000040000fa
:04002800b202000020
:020000040000fa
:04002c00b20200001c
:020000040000fa
:04003000b202000018
:020000040000fa
:04003400b202000014
:020000040000fa
:04003800b202000010
:020000040000fa
:04003c00b20200000c
:020000040000fa
:04004000b202000008
:020000040000fa
:04004400b202000004
:020000040000fa
:04004800b202000000
:020000040000fa
:04004c00b2020000fc
:020000040000fa
:04005000b2020000f8
:020000040000fa
:04005400b2020000f4
:020000040000fa
:04005800b2020000f0
:020000040000fa
:04005c00b2020000ec
:020000040000fa
:04006000b2020000e8
:020000040000fa
:04006400b2020000e4
:020000040000fa
:04006800b2020000e0
:020000040000fa
:04006c00b2020000dc
:020000040000fa
:04007000b2020000d8
:020000040000fa
:04007400b2020000d4
:020000040000fa
:04007800b2020000d0
:020000040000fa
:04007c00b2020000cc
:020000040000fa
:04008000b2020000c8
:020000040000fa
:04008400b2020000c4
:020000040000fa
:04008800b2020000c0
:020000040000fa
:04008c00b2020000bc
:020000040000fa
:04009000b2020000b8
:020000040000fa
:04009400b2020000b4
:020000040000fa
:04009800b2020000b0
:020000040000fa
:04009c00b2020000ac
:020000040000fa
:0400a000b2020000a8
:020000040000fa
:0400a400b2020000a4
:020000040000fa
:0400a800b2020000a0
:020000040000fa
:0400ac00b20200009c
:020000040000fa
:0400b000b202000098
:020000040000fa
:0400b400b202000094
:020000040000fa
:0400b800b202000090
:020000040000fa
:0400bc00b20200008c
:020000040000fa
:0400c000b202000088
:020000040000fa
:0400c400b202000084
:020000040000fa
:0400c800b202000080
:020000040000fa
:0400cc00b20200007c
:020000040000fa
:0400d000b202000078
:020000040000fa
:0400d400b202000074
:020000040000fa
:0400d800b202000070
:020000040000fa
:0400dc00b20200006c
:020000040000fa
:0400e000b202000068
:020000040000fa
:0400e400b202000064
:020000040000fa
:0400e800b202000060
:020000040000fa
:0400ec00b20200005c
:020000040000fa
:0400f000b202000058
:020000040000fa
:0400f400b202000054
:020000040000fa
:0400f800b202000050
:020000040000fa
:0400fc00b20200004c
:020000040000fa
:04010000b202000047
:020000040000fa
:04010400b202000043
:020000040000fa
:04010800b20200003f
:020000040000fa
:04010c00b20200003b
:020000040000fa
:04011000b202000037
:020000040000fa
:04011400b202000033
:020000040000fa
:04011800b20200002f
:020000040000fa
:04011c00b20200002b
:020000040000fa
:04012000b202000027
:020000040000fa
:04012400b202000023
:020000040000fa
:04012800b20200001f
:020000040000fa
:04012c00b20200001b
:020000040000fa
:04013000b202000017
:020000040000fa
:04013400b202000013
:020000040000fa
:04013800b20200000f
:020000040000fa
:04013c00b20200000b
:020000040000fa
:04014000b202000007
:020000040000fa
:04014400b202000003
:020000040000fa
:04014800b2020000ff
:020000040000fa
:04014c00b2020000fb
:020000040000fa
:04015000b2020000f7
:020000040000fa
:04015400b2020000f3
:020000040000fa
:04015800b2020000ef
:020000040000fa
:04015c00b2020000eb
:020000040000fa
:04016000b2020000e7
:020000040000fa
:04016400b2020000e3
:020000040000fa
:04016800b2020000df
:020000040000fa
:04016c00b2020000db
:020000040000fa
:04017000b2020000d7
:020000040000fa
:04017400b2020000d3
:020000040000fa
:04017800b2020000cf
:020000040000fa
:04017c00b2020000cb
:020000040000fa
:04018000b2020000c7
:020000040000fa
:04018400b2020000c3
:020000040000fa
:04018800b2020000bf
:020000040000fa
:04018c00b2020000bb
:020000040000fa
:04019000b2020000b7
:020000040000fa
:04019400b2020000b3
:020000040000fa
:04019800b2020000af
:020000040000fa
:04019c00b2020000ab
:020000040000fa
:0401a000b2020000a7
:020000040000fa
:0401a400b2020000a3
:020000040000fa
:0401a800b20200009f
:020000040000fa
:0401ac00b20200009b
:020000040000fa
:0401b000b202000097
:020000040000fa
:0401b400b202000093
:020000040000fa
:0401b800b20200008f
:020000040000fa
:0401bc00b20200008b
:020000040000fa
:0401c000b202000087
:020000040000fa
:0401c400b202000083
:020000040000fa
:0401c800b20200007f
:020000040000fa
:0401cc00b20200007b
:020000040000fa
:0401d000b202000077
:020000040000fa
:0401d400b202000073
:020000040000fa
:0401d800b20200006f
:020000040000fa
:0401dc00b20200006b
:020000040000fa
:0401e000b202000067
:020000040000fa
:0401e400b202000063
:020000040000fa
:0401e800b20200005f
:020000040000fa
:0401ec00b20200005b
:020000040000fa
:0401f000b202000057
:020000040000fa
:0401f400b202000053
:020000040000fa
:0401f800b20200004f
:020000040000fa
:0401fc00b20200004b
:020000040000fa
:100200002f8820000e7f24000e01880000000000cf
:10021000000020000000e000020032000001200089
:100220002002880014000700060107000000e0001b
:1002300003003a0000d12000010020000200370036
:100240000000200001002000810f7000010032003a
:1002500014000700000020000000e000020032004f
:100260000000020000000000d00d020000000000ad
:100270000040da000000fe004440a90020022000f7
:100280000000e00003003200002020009001880000
:100290004440a800000006008a1f78008b1f7800e9
:1002a00000000600a1028800800478000000eb0036
:1002b0001f003700e284440054a0b4009905ba003e
:1002c000e284440054a0b4009906ba00e2844400d9
:1002d00054a0b4000006eb00476fde00fd07b2003b
:1002e000ae018800636ce10003003a00eaff0700fa
:1002f0000000eb000e003700606ce10008003a00df
:10030000004deb000a05e800020039003420ec0043
:100310000af0a0008b05e900f9ff3e000400370059
:100320006168e100010032000086eb000b0007006d
:1003300019c7ba001905ba000e04e00003003a001c
:100340000a00e000dbff3a0000000600fe07b200f2
:10035000ae0288008a047800f5ff37000cd0a300b5
:10036000e20f4d001c00390089027800354dba00bb
:100370000a05e800020039003420ec000af0a00071
:100380008b05e9000f003200254dba000a05e80090
:10039000020039003420ec000af0a0008b05e900cf
:1003a000080032000c00e0000600320015cdba0053
:1003b0000a05e800020039003420ec000af0a00031
:1003c0008b05e9008984e80054a0b4000b00e0002c
:1003d000e2ff3a00000006009902ba00055d7800cd
:1003e0008b05e900f7ff3200c82ade00055d7800c2
:1003f0008b05e900f3ff32000c00e000f1ff320052
:1004000019ddba00eeff3700060804000000000006
:10041000dc030400000000003603040000000000bc
:100420003600f800809fbe00829fbe00849fbe0001
:10043000869fbe000000fa008020a9000000eb00ab
:10044000cb0507000080fa004f03be004f02be003c
:100450004f01be004f00be003600f900004006000c
:100460003600f800809fbe00829fbe00849fbe00c1
:10047000869fbe000000fa00c20507008040a90068
:1004800010002000ba0507000080fa004f03be00ec
:100490004f02be004f01be004f00be003600f90003
:1004a000004006003600f800809fbe00829fbe001c
:1004b000849fbe00869fbe000000fa008060a900f5
:1004c00020002000aa0507000080fa004f03be00ac
:1004d0004f02be004f01be004f00be003600f900c3
:1004e000004006003600f800809fbe00829fbe00dc
:1004f000849fbe00869fbe000000fa008080a90095
:10050000300020009a0507000080fa004f03be006b
:100510004f02be004f01be004f00be003600f90082
:10052000004006003600f800809fbe00829fbe009b
:10053000849fbe00869fbe000000fa008600a900ce
:10054000700020008a0507000080fa004f03be00fb
:100550004f02be004f01be004f00be003600f90042
:10056000004006000040da000000fe00ec87470073
:100570008e1f78006c87570044002000041f78000d
:10058000000f78006c87570002afbe00e1bf9f00ec
:100590006c805700780407001e00be004f077800eb
:1005a000cf00b10000000600ec8747008e1f7800e6
:1005b00011002000a1bf9f006c875700002f78001a
:1005c0006c8057006e0407001e0078004f0778000b
:1005d000cf00b100000006000800fa008e81e8009c
:1005e0008009780064004700010878006600470031
:1005f0000208780066004700100f78000a003700f4
:10060000640047001000780010407800e4004700c4
:10061000910078000101e800e400470082087800ba
:10062000840407001e0fe9001e0078000000e000af
:10063000f3ff3a0066004700100078000080fa00df
:1006400000000600000005000000fa00cfb8970087
:1006500068815700104080001000780034000700c7
:100660000080fa00000006000700370000000600c6
:100670008080200000000600fdff07003040880059
:100680002040880000000600ea874700889fbe00df
:100690008a9fbe008e1f7800000478000300780057
:1006a0007287570084e2260055c72600049fbe00cb
:1006b000c3962200030f78006c875700004feb00b1
:1006c00011059000a1049000910578000200e0005f
:1006d00002003200020778000100370072875700dd
:1006e0000000e00002003a000e007800e30207007c
:1006f0000a00e000030035008a0f500001003600b8
:100700000a0078000b027800890178000001780067
:100710008e00780008007800450007004f07780039
:100720004f05be004f04be00af00b1000000060040
:100730000200fa00881f780000047800e2bf9f00e2
:100740006481570008007800ec01070098009000d1
:100750000148a300010032000080eb004f04780044
:100760000080fa0000000600889fbe008a1f780003
:10077000800478004900900002047800800f540043
:100780000100360000047800080178006a85440002
:100790001a0078004f0207001a004400000d78008c
:1007a000e8844400990c14000048eb004f057800e1
:1007b0004f04be00000006001000780086ff3700de
:1007c000900190000388a30001003200e6ff37008b
:1007d0000348a30001003a00f7ff070000000600ed
:1007e000889fbe008a1f780080047800490090002e
:1007f00002047800800f54000100360000047800e5
:10080000080178006a8544001a0078003102070068
:100810001a004400000d7800e8844400990c14008c
:100820000048eb004f0578004f04be0000000600b2
:10083000f2874700889fbe008a9fbe008c9fbe0043
:100840008e1f78008004780001057800020478008b
:10085000830578006107620002003a008b0f5400a4
:1008600008003900080178008a0078000900780043
:10087000d3ff07008b0f5400020039008805780071
:100880001e003700088655000c017800f00f560056
:100890000100360002012000010220007e80570086
:1008a000130207008c0678000500370002012000c3
:1008b000fe80570009007800c1ff0700f08656004f
:1008c000ef8f5600f9ff3e004461de0000ff2f006d
:1008d0000091b90002014600fe805700090078002f
:1008e000b7ff07000e00e00004003a00080178009e
:1008f0008a00780009007800b1ff07000b0078003b
:100900004f0778004f06be004f05be004f04be00e3
:100910002f01b100000006000000050000000500e6
:1009200000000500000178000040eb008080fb0023
:1009300081804000a386200063c278000404e000a8
:1009400003003a00b086200060c078000000060076
:1009500092017800934f520004003a00b0862000c4
:1009600060c078000309e800010037000040e8009b
:10097000ea4f5000edff360000000600f687470002
:10098000889fbe008a9fbe008c9fbe008e1f78008d
:10099000800478000104780083057800040678005c
:1009a0000000eb00c0b79f008080eb00d1b79f0034
:1009b000e0b79f00f2b79f000008200080bf9f00b3
:1009c00098007800010078000005eb000100370076
:1009d0000a05e800304178000204e000030032001c
:1009e00053c2b300834f5100f9ff3a000a00e00000
:1009f000040032000a0178000900780070ff070047
:100a0000180c45001807780050c2b3009e4f100024
:100a100033013a000e07e8000e0c78001000370092
:100a2000cfb097000100a0000b003700cfb09700b7
:100a30000110a00008003700cfb097000120a000ef
:100a400005003700cfb097000130a000020037004a
:100a5000cfb097000140a000c1b79f00000ce80094
:100a60001800780090407800b2c2b30082cf5000e6
:100a7000f1ff320007003c0002c2b30082cf5000f9
:100a8000f0ff320032c2b30082cf500007003a00bc
:100a9000efff3700d2c2b30082cf5000e0ff320038
:100aa00002c3b30082cf5000e0ff3200a2c2b30005
:100ab00082cf50000d003a00000ce8001c80e900d5
:100ac000000e780010007800e0b79f000000e00002
:100ad0000f003d00cfb097000100a200c1b79f00fa
:100ae0000000ea00e0b79f00090037000502070098
:100af000e0b79f0001003700000ce8001800780004
:100b00009000fb000103b100e98f5000faff3600ae
:100b10004fb097000008a300020032000010a100af
:100b2000c0b79f0018007800e1c2b30090cf10005a
:100b300016003a008000eb00d1b79f000000e800eb
:100b4000000c7800a1c2b30090cf100006003a005c
:100b5000000ce8001c80e900000e7800100078000e
:100b6000d0b79f0009003700e6010700d0b79f000b
:100b700001003700000ce800180078009000fb002e
:100b80000103b100e98f5000faff36000800780039
:100b900064ff070080467800180078001000fb0012
:100ba000fe01070091062000810f5000380032003e
:100bb00012003c0041062000810f5000340032003a
:100bc0000a003c0011062000810f50002000320076
:100bd00031062000810f50009a003200510220009f
:100be000810f5000ae003a00a700370071062000c8
:100bf000810f5000aa003c0082003700010720004e
:100c0000810f50005c00320007003c00e10620002c
:100c1000810f500074003200f1062000810f500057
:100c20009f003a003900370051072000810f500023
:100c30002700320081072000810f5000420032005f
:100c400031072000810f500095003a0085003700e1
:100c50008d80fb000c01780000fe2f000f0040008b
:100c6000d50107000000e0009c0032001800780069
:100c7000000ce8009041780002fe2f000f014100b7
:100c8000f88057000900780024ff07000e003700a5
:100c90008d80fb008c0178001200200000fe2f00e8
:100ca0000f004000e30107000000e0008b0032006d
:100cb000180ce80002fe2f000f014100f8805700d9
:100cc0000900780014ff0700000545008400370084
:100cd0008d80fb008c0178000001eb0000fe2f00ee
:100ce0000f004000d30107000000e0007b0032004d
:100cf000180ce80002fe2f000f014100f880570099
:100d00000900780004ff0700efff37008d80fb002b
:100d10008c0178000001eb0000fe2f000f00400066
:100d2000c40107000000e0006c003200180ce8006d
:100d300002fe2f000f014100f880570009007800e3
:100d4000f5fe0700e0ff37008d80fb008c01780086
:100d50000001eb0000fe2f000f004000b50107006e
:100d60000000e0005d00320018007800000ce80090
:100d700090417800160037008c0178000001eb00ec
:100d8000010f200000fe2f000f004000a901070006
:100d90000000e00051003200180ce8000fb097008e
:100da0009fb097002fb19700bfb19700e00f5000a0
:100db000e08f5800e00f5900e08f590003003a001f
:100dc0008001eb00428620004000370083c7b3005b
:100dd00002fe2f000f014100f88057000900780043
:100de000cefe0700b8ff37000b0145008d80fb00e9
:100df0008c01780000fe2f000f004000e601070084
:100e0000360037008d80fb000c01780000fe2f00bb
:100e10000f004000680107000000e0002f003200d2
:100e200018007800000ce8009041780002fe2f00c6
:100e30000f014100f880570009007800b7fe070055
:100e4000a1ff370000c8b30080cf560023003a004e
:100e5000180ce8001c80e900000e780010407800b3
:100e60000d00370000c8b30080cf56001b003a00c9
:100e7000180ce8001c80e900000e78008001eb00ef
:100e8000100178001100370001c8b30081cf56006f
:100e900012003a00180ce800e0df9f00080037005d
:100ea00050c2b300e0df9f000e0c78000000eb00a2
:100eb000c0b79f00e0b79f008080eb00d1b79f00d4
:100ec00013002000e2fd2f000f014100f8805700c1
:100ed00009007800ecfd07007bff3700180ce800e4
:100ee0000a0078004f0778004f06be004f05be008d
:100ef0004f04be006f01b100000006008200fa003e
:100f0000889fbe008a1f7800000578008204780060
:100f1000c13f9f000004eb00100037000902780079
:100f200088017800a2f72f000f01410081f72f0000
:100f30008f8040000a00780090fe07000800400003
:100f4000880f500004003d00b004200000448800d9
:100f50000084eb0004003700000478004f3897004d
:100f60001004e000edff3a00080078004f0578001b
:100f70004f04be000080fa0000000600889fbe00fb
:100f80008a1f780000047800010578000000eb005b
:100f90000800e0001a003200180090000058a3007a
:100fa0000c003200ea04440068009000990f100021
:100fb00008003600b80990000001eb0082007800bc
:100fc00008007800030001000080eb001900e00039
:100fd0000b003200740044000008eb006c00440079
:100fe0000008eb006a0044000008eb000000eb0082
:100ff0000a00e00002003200180078006afd0700d5
:101000004f0578004f04be0000000600889fbe0018
:101010008a1f78000004be000000eb000800e0001a
:1010200029003200180090000058a300120032007e
:101030006a054400680090009a0f1000080036000e
:10104000b80990000001eb008200780008007800e9
:10105000030001000080eb001a00e0001a003200db
:10106000740044000008eb006c0044000008eb0032
:101070006a0044000008eb00780a90000810900015
:10108000800f5200060031000002520011002000c3
:10109000cfa2de00612bb9001800780033fd0700f5
:1010a00000022000080040000008eb007e00440021
:1010b0000008eb000000eb000900e0000200320035
:1010c0001800780038fd07004f0578004f04be0077
:1010d000000006008001780002003700b159780056
:1010e0000201e9000200e000fcff3a0000000600f7
:1010f000889fbe008a9fbe00800478000200e00046
:101100005a00320001407800814c7800828144000e
:10111000f1f99f00e20f510054003600914498000d
:10112000a1449800e1f99f00d1f99f00e60f51001a
:101130004e003600b1449800c1f99f00e80f5100fd
:101140004a0036000905ea00630565000a84440088
:101150000a055100c1ff2f00010565000080fb005a
:101160008000eb0012102000131020007c0107000b
:10117000008cbe000a01440060b99f0071b99f0055
:10118000e80f55003900360020049800310498001b
:10119000400498005104980020b99f0031b99f0085
:1011a00040b99f0051b99f00f80f55002f0036003d
:1011b0006004980071049800000c9800110c9800cd
:1011c000200c9800310c9800400c9800510c9800ad
:1011d00020b19f0031b19f0040b19f0051b19f00ed
:1011e00060b19f0071b19f0000b99f0011b99f00cd
:1011f00064016400780141000204440002055500c6
:101200006011b8000203be000002be000403be006d
:101210006022b80000007200818072000201730039
:10122000838173000f00370008027800009abe0027
:10123000029abe00009abe000292be00000c980006
:10124000110c9800220c9800330c9800400c980068
:10125000510c9800620c9800730c98000a02b100bf
:101260000802b000ff0f5500efff3e0009007800b4
:101270004f05be004f04be0000000600800078004d
:10128000040037003104e00002003a000000510081
:1012900000000600010178000108a300f9ff3a00f0
:1012a0008101780031017800f4ef2f000202420042
:1012b0000281ea00020162000408280004016100c2
:1012c000f7ff320083007800010178003104e0006c
:1012d000fdff3a0000005100000006008000780089
:1012e0001000200002022000828f50000400320013
:1012f000e9805000e48f5000010036000000eb0050
:1013000000000600889fbe008a1f780080047800d5
:101310000904780088047800394578000a00fb0049
:10132000eeff07000000e000f9ff3a00b0c2b30092
:10133000804f550005003200d0c2b3008000eb00a2
:10134000804f550005003a00020037008000eb0096
:1013500001003700110020000804e8000000eb0045
:10136000030037006a02b900020052000003b00017
:101370003801fb0003fd2f0082814100e98f5100fd
:10138000f8ff36000100e00001003a000000ea002a
:101390004f0578004f04be0000000600f1fb2f004f
:1013a00080804000f98f500001003e000050a000f6
:1013b00000000600f9ff3700881f7800000478005d
:1013c00000082000808f5000170035001008200012
:1013d000808f50000b00340030082000808f5000b8
:1013e00011003a00920078006880500000097800ef
:1013f0003002be002003be00049cbe000694be0066
:1014000007003700920278006480520000097800db
:101410001000be009e000700009cbe000294be00ab
:1014200010002000010037000000eb004f0478009e
:101430000000060084082000848f50001d00320048
:101440000d003c0014082000848f5000270032005b
:1014500002003c000408200004003700240820009b
:10146000848f50002a00320044082000848f5000ee
:1014700048003a003b003700040a2000848f5000e7
:101480002c00320004003c0004092000848f50002e
:1014900040003a002d003700020c2000828f5000df
:1014a0001e003200020f2000828f500039003a00e7
:1014b000300037009380e9000200e00005003200b0
:1014c000810978001102fb00cfa2de00612bb90078
:1014d0002d00370081097800114278000482fb005a
:1014e0008002eb006033b800270037001302780059
:1014f000e40052000200e0000a0032008109780096
:101500001102be004fabde00860378001e003700dc
:1015100093027800e88052000e00370093027800b2
:10152000e4805200810978001102be006033b800e7
:10153000150037009380e9008109780011027800d6
:10154000cfa2de00612bb9000f0037001303780033
:10155000e8005300810978003102be002103be007b
:10156000090037009380e9000200e0000200320029
:10157000f1ff37009380e9008109780011027800bb
:101580008002eb006033b8000498be000690be00f5
:10159000100005000000050044082000848f500062
:1015a000270032000a003c0014082000848f5000fd
:1015b0001c00320024082000848f500026003200d6
:1015c00004082000848f50002c003a001c003700d3
:1015d00004092000848f50001f00320004003c00ea
:1015e00084082000848f500024003a000700370050
:1015f000040a2000848f500011003200040c2000e7
:10160000848f50001d003a00060037009380e900e7
:1016100081097800910078000108780082487800fc
:10162000150037009380e900810978009100780067
:1016300001087800cf91de008288be000e003700de
:101640009380e90081097800910078000108780012
:1016500082087800080037009380e900810978004b
:1016600091007800010878006112b900612bb9007f
:101670008498be008690be001000050000000500a2
:1016800000000600fcfb0700fdff0700fcff370021
:10169000810378001d0007000001be006000b80053
:1016a0000478a30013003a006220e10015003e0018
:1016b0000d0039008301d1000281d3008180d30065
:1016c0008301d1000281d3008180d3008301d10046
:1016d0000281d3008180d3000538b000c42add0028
:1016e000f300b2008381720007f0a70003f0a000ae
:1016f0000000060083ff2700020020006110b900ef
:10170000f9ff370003ff2700f7ff3700c70ade00a5
:10171000f107b200f50fb20008003200e1cf42003d
:10172000020032000170a00024000500810f70004b
:10173000010032000408050044000500810f70001c
:1017400002003a00140005008502e9000000400094
:1017500081c04800fcff3b000170a0002400050090
:10176000020ab900001bb9000200b8008100420063
:10177000810043000000060000c0da0000000600ff
:0817800000c0da0000000600c1
:020000040000fa
:10178800486f000077640000792000005061000075
:10179800726400006e65000072200000330a0000c9
:1017a8000d000000486f00007764000079200000f9
:1017b8004d610000646100006d2000000a0d00000a
:0417c800000000001d
:020000040000fa
:1017cc000000fa0080002000c01c88009a23ef0063
:1017dc0080002000001d8800a223ef0099e3a800e0
:1017ec009b43a8000080fa00000006000000fa00ed
:1017fc0000000000d01c8000610060000000e000d0
:10180c00fcff3200d01c8000620060000000e00091
:10181c00010032009a23a900f01c800000407800df
:10182c000080fa00000006000200fa00004f780069
:10183c0000000000d11c800000202000008060000f
:10184c000000e000fbff3a001e80fb00e01c88005b
:10185c000080fa00000006000000fa00d01c800096
:10186c0000407800614060000080fb0000f0a700a1
:10187c000000ea000000ea004f00de0000407800a3
:10188c000080fa00000006000000fa00d11c800065
:10189c0000202000008060000000e00007003a00fb
:1018ac00d11c800000402000008060000000e0009f
:1018bc000200320010002000010037000000eb0095
:1018cc00004078000080fa00000006000000fa00da
:1018dc00d01c80004800de00614060000080fb00ee
:1018ec0000f0a7000000ea000000ea004f00de0054
:1018fc00004078000080fa00000006000000fa00aa
:10190c00d01c80000080fa00000006000000fa00e5
:10191c0099e3a8009b43a8000080fa000000060091
:10192c000000fa0099e3a9009b43a9000080fa008b
:10193c00000006000000fa006626ef007a26ef0091
:10194c008e26ef0070f9270010338800f0f72f0077
:10195c00b0338800f03f2000503488007426ef002c
:10196c008826ef009c26ef007226ef008626ef00fb
:10197c009a26ef006826ef007c26ef009026ef00f9
:10198c00f000200050338800f0202f00f033880046
:10199c00f00020009034880001088000f00b20003b
:1019ac0000816000600420007105200003102000fd
:1019bc00804978008149780082497800a13d8000f7
:1019cc0000fc2f00008060000030a000a03d8800cb
:1019dc00d13e8000f00f2800808060000030200095
:1019ec0001007000d03e88000008800000017800e3
:1019fc000260a0006004200071052000031020008c
:101a0c008049780081497800824978000080fa008a
:041a1c0000000600c0
:020000040000fa
:101a200044080000200000008000000000080000c2
:101a30000200000082000000ffff0000020800001a
:101a400042000000820000000608080008080800a4
:101a50000100030000000000000000000000000082
:101a600000000600080000000000000000dc030089
:101a7000360300000000000000000000000000002d
:101a80000000000000000000000000000000000056
:101a90000000000000000000000000000000000046
:101aa000640800001c00000082000000286e69002d
:101ab0006c29000068076c00094c83006a90740070
:101ac000a07ac00000806800880084006c8200005a
:101ad000810000008008000002000000800000007b
:041ae0000000000002
:020000040000fa
:101ae4000000fa0000002300100888000621ef001f
:101af4006821ef006a21ef000821ef000070200048
:101b0400500888000c21ef000e21ef007821ef002f
:101b14007a21ef007c21ef007e21ef008021ef008d
:101b24008221ef008421ef008621ef000001eb0009
:101b340080072000a10920001310200080497800ac
:101b440081497800824978000001eb00600420009c
:101b54007105200003102000804978008149780035
:101b6400824978000080fa00000006000200fa00b2
:101b7400000f78009e00780001408800ffff3700c6
:101b84000000fa004084200080077800c08520000f
:101b9400000188000080fa00000006000000fa003e
:101ba4000900070040bc2800801f7800a5fa070040
:101bb4008f87e90060bd2800801f7800a1fa070024
:101bc4008f87e900f7ff37000000fa005bff07008a
:101bd40004000700c2ff0700fbfe07000080fa00b4
:101be400000006000000fa000080fa000000060071
:020000040000fa
:020000040005f5
:045e0000ffffff00a1
:020000040000fa
:020000040005f5
:045e2000ffffff0081
:020000040000fa
:020000040005f5
:045e300078ffff00f8
:020000040000fa
:020000040005f5
:045e3800b3ffff00b5
:020000040000fa
:020000040005f5
:045e40009fffff00c1
:020000040000fa
:020000040005f5
:045e4800ffffff0059
:020000040000fa
:020000040005f5
:045e5000ddffff0073
:020000040000fa
:020000040005f5
:045e5800ffffff0049
:00000001FF
